{
  "_format": "hh-sol-artifact-1",
  "contractName": "CurrencyConverter",
  "sourceName": "contracts/CurrencyConverter.sol",
  "abi": [
    {
      "inputs": [
        {
          "internalType": "address",
          "name": "_axcnh",
          "type": "address"
        }
      ],
      "stateMutability": "nonpayable",
      "type": "constructor"
    },
    {
      "inputs": [
        {
          "internalType": "address",
          "name": "owner",
          "type": "address"
        }
      ],
      "name": "OwnableInvalidOwner",
      "type": "error"
    },
    {
      "inputs": [
        {
          "internalType": "address",
          "name": "account",
          "type": "address"
        }
      ],
      "name": "OwnableUnauthorizedAccount",
      "type": "error"
    },
    {
      "anonymous": false,
      "inputs": [
        {
          "indexed": true,
          "internalType": "address",
          "name": "previousOwner",
          "type": "address"
        },
        {
          "indexed": true,
          "internalType": "address",
          "name": "newOwner",
          "type": "address"
        }
      ],
      "name": "OwnershipTransferred",
      "type": "event"
    },
    {
      "anonymous": false,
      "inputs": [
        {
          "indexed": true,
          "internalType": "address",
          "name": "token",
          "type": "address"
        },
        {
          "indexed": false,
          "internalType": "uint256",
          "name": "newRate",
          "type": "uint256"
        }
      ],
      "name": "RateUpdated",
      "type": "event"
    },
    {
      "anonymous": false,
      "inputs": [
        {
          "indexed": true,
          "internalType": "address",
          "name": "user",
          "type": "address"
        },
        {
          "indexed": true,
          "internalType": "address",
          "name": "fromToken",
          "type": "address"
        },
        {
          "indexed": true,
          "internalType": "address",
          "name": "toToken",
          "type": "address"
        },
        {
          "indexed": false,
          "internalType": "uint256",
          "name": "amountIn",
          "type": "uint256"
        },
        {
          "indexed": false,
          "internalType": "uint256",
          "name": "amountOut",
          "type": "uint256"
        }
      ],
      "name": "Swapped",
      "type": "event"
    },
    {
      "inputs": [],
      "name": "axcnh",
      "outputs": [
        {
          "internalType": "contract IERC20",
          "name": "",
          "type": "address"
        }
      ],
      "stateMutability": "view",
      "type": "function"
    },
    {
      "inputs": [
        {
          "internalType": "address",
          "name": "_token",
          "type": "address"
        },
        {
          "internalType": "uint256",
          "name": "_amount",
          "type": "uint256"
        }
      ],
      "name": "fund",
      "outputs": [],
      "stateMutability": "payable",
      "type": "function"
    },
    {
      "inputs": [],
      "name": "owner",
      "outputs": [
        {
          "internalType": "address",
          "name": "",
          "type": "address"
        }
      ],
      "stateMutability": "view",
      "type": "function"
    },
    {
      "inputs": [
        {
          "internalType": "address",
          "name": "_token",
          "type": "address"
        },
        {
          "internalType": "uint256",
          "name": "_amountIn",
          "type": "uint256"
        },
        {
          "internalType": "address",
          "name": "_escrow",
          "type": "address"
        },
        {
          "internalType": "uint256",
          "name": "_tradeId",
          "type": "uint256"
        }
      ],
      "name": "payWithToken",
      "outputs": [],
      "stateMutability": "nonpayable",
      "type": "function"
    },
    {
      "inputs": [
        {
          "internalType": "address",
          "name": "",
          "type": "address"
        }
      ],
      "name": "rates",
      "outputs": [
        {
          "internalType": "uint256",
          "name": "",
          "type": "uint256"
        }
      ],
      "stateMutability": "view",
      "type": "function"
    },
    {
      "inputs": [],
      "name": "renounceOwnership",
      "outputs": [],
      "stateMutability": "nonpayable",
      "type": "function"
    },
    {
      "inputs": [
        {
          "internalType": "address",
          "name": "_token",
          "type": "address"
        },
        {
          "internalType": "uint256",
          "name": "_rate",
          "type": "uint256"
        }
      ],
      "name": "setRate",
      "outputs": [],
      "stateMutability": "nonpayable",
      "type": "function"
    },
    {
      "inputs": [
        {
          "internalType": "address",
          "name": "_token",
          "type": "address"
        },
        {
          "internalType": "uint256",
          "name": "_amount",
          "type": "uint256"
        }
      ],
      "name": "swapAXCNHToToken",
      "outputs": [],
      "stateMutability": "nonpayable",
      "type": "function"
    },
    {
      "inputs": [
        {
          "internalType": "address",
          "name": "_token",
          "type": "address"
        },
        {
          "internalType": "uint256",
          "name": "_amount",
          "type": "uint256"
        }
      ],
      "name": "swapTokenToAXCNH",
      "outputs": [],
      "stateMutability": "payable",
      "type": "function"
    },
    {
      "inputs": [
        {
          "internalType": "address",
          "name": "newOwner",
          "type": "address"
        }
      ],
      "name": "transferOwnership",
      "outputs": [],
      "stateMutability": "nonpayable",
      "type": "function"
    },
    {
      "stateMutability": "payable",
      "type": "receive"
    }
  ],
  "bytecode": "0x608060405234801561001057600080fd5b50604051610d5e380380610d5e83398101604081905261002f916100d4565b338061005557604051631e4fbdf760e01b81526000600482015260240160405180910390fd5b61005e81610084565b50600180546001600160a01b0319166001600160a01b0392909216919091179055610104565b600080546001600160a01b038381166001600160a01b0319831681178455604051919092169283917f8be0079c531659141344cd1fd0a4f28419497f9722a3daafe3b4186f6b6457e09190a35050565b6000602082840312156100e657600080fd5b81516001600160a01b03811681146100fd57600080fd5b9392505050565b610c4b806101136000396000f3fe6080604052600436106100955760003560e01c80638da5cb5b116100595780638da5cb5b1461012b578063a8734f0b14610162578063c0f987751461019d578063d61a1a22146101b0578063f2fde38b146101d057600080fd5b80632bdb7097146100a1578063378230e9146100c3578063715018a6146100e35780637b1837de146100f857806382b2f7051461010b57600080fd5b3661009c57005b600080fd5b3480156100ad57600080fd5b506100c16100bc366004610ac5565b6101f0565b005b3480156100cf57600080fd5b506100c16100de366004610aef565b610251565b3480156100ef57600080fd5b506100c1610493565b6100c1610106366004610ac5565b6104a7565b34801561011757600080fd5b506100c1610126366004610ac5565b61052f565b34801561013757600080fd5b506000546001600160a01b03165b6040516001600160a01b0390911681526020015b60405180910390f35b34801561016e57600080fd5b5061018f61017d366004610b33565b60026020526000908152604090205481565b604051908152602001610159565b6100c16101ab366004610ac5565b610786565b3480156101bc57600080fd5b50600154610145906001600160a01b031681565b3480156101dc57600080fd5b506100c16101eb366004610b33565b6109ee565b6101f8610a2c565b6001600160a01b03821660008181526002602052604090819020839055517f492de3ddd6d733b461680f630083e98c567b860343e3f9ac763ee61d7c57b548906102459084815260200190565b60405180910390a25050565b6001600160a01b038416600090815260026020526040902054806102905760405162461bcd60e51b815260040161028790610b55565b60405180910390fd5b6040516323b872dd60e01b81526001600160a01b038616906323b872dd906102c090339030908990600401610b82565b6020604051808303816000875af11580156102df573d6000803e3d6000fd5b505050506040513d601f19601f820116820180604052508101906103039190610ba6565b6103445760405162461bcd60e51b8152602060048201526012602482015271151c985b9cd9995c88125b8819985a5b195960721b6044820152606401610287565b60008161035986670de0b6b3a7640000610bc8565b6103639190610bf3565b60015460405163095ea7b360e01b81526001600160a01b0387811660048301526024820184905292935091169063095ea7b3906044016020604051808303816000875af11580156103b8573d6000803e3d6000fd5b505050506040513d601f19601f820116820180604052508101906103dc9190610ba6565b5060405163412b96dd60e01b8152600481018490523360248201526001600160a01b0385169063412b96dd90604401600060405180830381600087803b15801561042557600080fd5b505af1158015610439573d6000803e3d6000fd5b505060015460408051898152602081018690526001600160a01b039283169450918a16925033917f6782190c91d4a7e8ad2a867deed6ec0a970cab8ff137ae2bd4abd92b3810f4d3910160405180910390a4505050505050565b61049b610a2c565b6104a56000610a59565b565b6001600160a01b0382161561052b576040516323b872dd60e01b81526001600160a01b038316906323b872dd906104e690339030908690600401610b82565b6020604051808303816000875af1158015610505573d6000803e3d6000fd5b505050506040513d601f19601f820116820180604052508101906105299190610ba6565b505b5050565b6001600160a01b038216600090815260026020526040902054806105655760405162461bcd60e51b815260040161028790610b55565b6000670de0b6b3a764000061057a8385610bc8565b6105849190610bf3565b6001546040516323b872dd60e01b81529192506001600160a01b0316906323b872dd906105b990339030908890600401610b82565b6020604051808303816000875af11580156105d8573d6000803e3d6000fd5b505050506040513d601f19601f820116820180604052508101906105fc9190610ba6565b6106405760405162461bcd60e51b8152602060048201526015602482015274151c985b9cd9995c88105610d3920819985a5b1959605a1b6044820152606401610287565b6001600160a01b03841661068157604051339082156108fc029083906000818181858888f1935050505015801561067b573d6000803e3d6000fd5b50610734565b60405163a9059cbb60e01b8152336004820152602481018290526001600160a01b0385169063a9059cbb906044016020604051808303816000875af11580156106ce573d6000803e3d6000fd5b505050506040513d601f19601f820116820180604052508101906106f29190610ba6565b6107345760405162461bcd60e51b8152602060048201526013602482015272151c985b9cd9995c8813dd5d0819985a5b1959606a1b6044820152606401610287565b60015460408051858152602081018490526001600160a01b0387811693169133917f6782190c91d4a7e8ad2a867deed6ec0a970cab8ff137ae2bd4abd92b3810f4d3910160405180910390a450505050565b6001600160a01b038216600090815260026020526040902054806107bc5760405162461bcd60e51b815260040161028790610b55565b816001600160a01b03841661080d575034806108085760405162461bcd60e51b815260206004820152600b60248201526a139bc810d196081cd95b9d60aa1b6044820152606401610287565b6108c1565b6040516323b872dd60e01b81526001600160a01b038516906323b872dd9061083d90339030908890600401610b82565b6020604051808303816000875af115801561085c573d6000803e3d6000fd5b505050506040513d601f19601f820116820180604052508101906108809190610ba6565b6108c15760405162461bcd60e51b8152602060048201526012602482015271151c985b9cd9995c88125b8819985a5b195960721b6044820152606401610287565b6000826108d683670de0b6b3a7640000610bc8565b6108e09190610bf3565b60015460405163a9059cbb60e01b8152336004820152602481018390529192506001600160a01b03169063a9059cbb906044016020604051808303816000875af1158015610932573d6000803e3d6000fd5b505050506040513d601f19601f820116820180604052508101906109569190610ba6565b61099a5760405162461bcd60e51b8152602060048201526015602482015274151c985b9cd9995c88105610d3920819985a5b1959605a1b6044820152606401610287565b60015460408051848152602081018490526001600160a01b039283169288169133917f6782190c91d4a7e8ad2a867deed6ec0a970cab8ff137ae2bd4abd92b3810f4d3910160405180910390a45050505050565b6109f6610a2c565b6001600160a01b038116610a2057604051631e4fbdf760e01b815260006004820152602401610287565b610a2981610a59565b50565b6000546001600160a01b031633146104a55760405163118cdaa760e01b8152336004820152602401610287565b600080546001600160a01b038381166001600160a01b0319831681178455604051919092169283917f8be0079c531659141344cd1fd0a4f28419497f9722a3daafe3b4186f6b6457e09190a35050565b80356001600160a01b0381168114610ac057600080fd5b919050565b60008060408385031215610ad857600080fd5b610ae183610aa9565b946020939093013593505050565b60008060008060808587031215610b0557600080fd5b610b0e85610aa9565b935060208501359250610b2360408601610aa9565b9396929550929360600135925050565b600060208284031215610b4557600080fd5b610b4e82610aa9565b9392505050565b602080825260139082015272151bdad95b881b9bdd081cdd5c1c1bdc9d1959606a1b604082015260600190565b6001600160a01b039384168152919092166020820152604081019190915260600190565b600060208284031215610bb857600080fd5b81518015158114610b4e57600080fd5b8082028115828204841417610bed57634e487b7160e01b600052601160045260246000fd5b92915050565b600082610c1057634e487b7160e01b600052601260045260246000fd5b50049056fea2646970667358221220ff5ccf7d277746dfcfb0f610489972fe8c45ad3622b51a4b4246e6ad1622ed6b64736f6c63430008180033",
  "linkReferences": {},
  "deployedLinkReferences": {}
}