{
  "_format": "hh-sol-artifact-1",
  "contractName": "Escrow",
  "sourceName": "contracts/Escrow.sol",
  "abi": [
    {
      "inputs": [
        {
          "internalType": "address",
          "name": "_stablecoin",
          "type": "address"
        }
      ],
      "stateMutability": "nonpayable",
      "type": "constructor"
    },
    {
      "anonymous": false,
      "inputs": [
        {
          "indexed": true,
          "internalType": "uint256",
          "name": "tradeId",
          "type": "uint256"
        },
        {
          "indexed": true,
          "internalType": "address",
          "name": "seller",
          "type": "address"
        },
        {
          "indexed": false,
          "internalType": "uint8",
          "name": "rating",
          "type": "uint8"
        }
      ],
      "name": "ExporterRated",
      "type": "event"
    },
    {
      "anonymous": false,
      "inputs": [
        {
          "indexed": true,
          "internalType": "uint256",
          "name": "tradeId",
          "type": "uint256"
        },
        {
          "indexed": true,
          "internalType": "address",
          "name": "buyer",
          "type": "address"
        }
      ],
      "name": "FundsDeposited",
      "type": "event"
    },
    {
      "anonymous": false,
      "inputs": [
        {
          "indexed": true,
          "internalType": "uint256",
          "name": "tradeId",
          "type": "uint256"
        },
        {
          "indexed": true,
          "internalType": "address",
          "name": "seller",
          "type": "address"
        }
      ],
      "name": "FundsReleased",
      "type": "event"
    },
    {
      "anonymous": false,
      "inputs": [
        {
          "indexed": true,
          "internalType": "uint256",
          "name": "tradeId",
          "type": "uint256"
        }
      ],
      "name": "TradeCancelled",
      "type": "event"
    },
    {
      "anonymous": false,
      "inputs": [
        {
          "indexed": true,
          "internalType": "uint256",
          "name": "tradeId",
          "type": "uint256"
        },
        {
          "indexed": true,
          "internalType": "address",
          "name": "buyer",
          "type": "address"
        },
        {
          "indexed": true,
          "internalType": "address",
          "name": "seller",
          "type": "address"
        },
        {
          "indexed": false,
          "internalType": "uint256",
          "name": "amount",
          "type": "uint256"
        },
        {
          "indexed": false,
          "internalType": "string",
          "name": "description",
          "type": "string"
        }
      ],
      "name": "TradeCreated",
      "type": "event"
    },
    {
      "anonymous": false,
      "inputs": [
        {
          "indexed": true,
          "internalType": "uint256",
          "name": "tradeId",
          "type": "uint256"
        }
      ],
      "name": "TradeReceived",
      "type": "event"
    },
    {
      "anonymous": false,
      "inputs": [
        {
          "indexed": true,
          "internalType": "uint256",
          "name": "tradeId",
          "type": "uint256"
        },
        {
          "indexed": false,
          "internalType": "string",
          "name": "trackingNumber",
          "type": "string"
        },
        {
          "indexed": false,
          "internalType": "string",
          "name": "shippingMethod",
          "type": "string"
        },
        {
          "indexed": false,
          "internalType": "string",
          "name": "remarks",
          "type": "string"
        }
      ],
      "name": "TradeShipped",
      "type": "event"
    },
    {
      "inputs": [
        {
          "internalType": "uint256",
          "name": "_tradeId",
          "type": "uint256"
        }
      ],
      "name": "cancelTrade",
      "outputs": [],
      "stateMutability": "nonpayable",
      "type": "function"
    },
    {
      "inputs": [
        {
          "internalType": "uint256",
          "name": "_tradeId",
          "type": "uint256"
        }
      ],
      "name": "confirmReceipt",
      "outputs": [],
      "stateMutability": "nonpayable",
      "type": "function"
    },
    {
      "inputs": [
        {
          "internalType": "uint256",
          "name": "_tradeId",
          "type": "uint256"
        },
        {
          "internalType": "uint8",
          "name": "_rating",
          "type": "uint8"
        }
      ],
      "name": "confirmReceiptAndRate",
      "outputs": [],
      "stateMutability": "nonpayable",
      "type": "function"
    },
    {
      "inputs": [
        {
          "internalType": "uint256",
          "name": "_tradeId",
          "type": "uint256"
        },
        {
          "internalType": "string",
          "name": "_trackingNumber",
          "type": "string"
        },
        {
          "internalType": "string",
          "name": "_shippingMethod",
          "type": "string"
        },
        {
          "internalType": "string",
          "name": "_remarks",
          "type": "string"
        }
      ],
      "name": "confirmShipment",
      "outputs": [],
      "stateMutability": "nonpayable",
      "type": "function"
    },
    {
      "inputs": [
        {
          "internalType": "address",
          "name": "_seller",
          "type": "address"
        },
        {
          "internalType": "uint256",
          "name": "_amount",
          "type": "uint256"
        },
        {
          "internalType": "string",
          "name": "_description",
          "type": "string"
        }
      ],
      "name": "createTrade",
      "outputs": [
        {
          "internalType": "uint256",
          "name": "",
          "type": "uint256"
        }
      ],
      "stateMutability": "nonpayable",
      "type": "function"
    },
    {
      "inputs": [
        {
          "internalType": "uint256",
          "name": "_tradeId",
          "type": "uint256"
        }
      ],
      "name": "depositFunds",
      "outputs": [],
      "stateMutability": "nonpayable",
      "type": "function"
    },
    {
      "inputs": [
        {
          "internalType": "address",
          "name": "_seller",
          "type": "address"
        }
      ],
      "name": "getSellerReputation",
      "outputs": [
        {
          "internalType": "uint256",
          "name": "averageRating",
          "type": "uint256"
        },
        {
          "internalType": "uint256",
          "name": "totalTrades",
          "type": "uint256"
        }
      ],
      "stateMutability": "view",
      "type": "function"
    },
    {
      "inputs": [
        {
          "internalType": "uint256",
          "name": "_tradeId",
          "type": "uint256"
        },
        {
          "internalType": "uint8",
          "name": "_rating",
          "type": "uint8"
        }
      ],
      "name": "rateExporter",
      "outputs": [],
      "stateMutability": "nonpayable",
      "type": "function"
    },
    {
      "inputs": [
        {
          "internalType": "address",
          "name": "",
          "type": "address"
        }
      ],
      "name": "sellerStats",
      "outputs": [
        {
          "internalType": "uint256",
          "name": "totalRating",
          "type": "uint256"
        },
        {
          "internalType": "uint256",
          "name": "totalTrades",
          "type": "uint256"
        }
      ],
      "stateMutability": "view",
      "type": "function"
    },
    {
      "inputs": [],
      "name": "stablecoin",
      "outputs": [
        {
          "internalType": "contract IERC20",
          "name": "",
          "type": "address"
        }
      ],
      "stateMutability": "view",
      "type": "function"
    },
    {
      "inputs": [],
      "name": "tradeCounter",
      "outputs": [
        {
          "internalType": "uint256",
          "name": "",
          "type": "uint256"
        }
      ],
      "stateMutability": "view",
      "type": "function"
    },
    {
      "inputs": [
        {
          "internalType": "uint256",
          "name": "",
          "type": "uint256"
        }
      ],
      "name": "trades",
      "outputs": [
        {
          "internalType": "uint256",
          "name": "id",
          "type": "uint256"
        },
        {
          "internalType": "address",
          "name": "buyer",
          "type": "address"
        },
        {
          "internalType": "address",
          "name": "seller",
          "type": "address"
        },
        {
          "internalType": "uint256",
          "name": "amount",
          "type": "uint256"
        },
        {
          "internalType": "string",
          "name": "description",
          "type": "string"
        },
        {
          "internalType": "enum Escrow.TradeStatus",
          "name": "status",
          "type": "uint8"
        },
        {
          "internalType": "uint8",
          "name": "rating",
          "type": "uint8"
        },
        {
          "internalType": "string",
          "name": "trackingNumber",
          "type": "string"
        },
        {
          "internalType": "string",
          "name": "shippingMethod",
          "type": "string"
        },
        {
          "internalType": "string",
          "name": "remarks",
          "type": "string"
        }
      ],
      "stateMutability": "view",
      "type": "function"
    }
  ],
  "bytecode": "0x608060405234801561001057600080fd5b50604051611aec380380611aec83398101604081905261002f91610054565b600080546001600160a01b0319166001600160a01b0392909216919091179055610084565b60006020828403121561006657600080fd5b81516001600160a01b038116811461007d57600080fd5b9392505050565b611a59806100936000396000f3fe608060405234801561001057600080fd5b50600436106100b45760003560e01c8063843cba1311610071578063843cba131461014c578063996d5c4f1461015f578063d1be75f614610172578063e1eaeb421461019a578063e5b0117a146101ad578063e9cbd822146101d457600080fd5b806309ec6cc7146100b957806313b3e51f146100ce5780631e6c598e146100f45780633985f0a01461011d5780633b76594d14610130578063660d15b514610143575b600080fd5b6100cc6100c736600461136e565b6101ff565b005b6100e16100dc3660046113b9565b6104b8565b6040519081526020015b60405180910390f35b61010761010236600461136e565b61074e565b6040516100eb9a999897969594939291906114e0565b6100cc61012b36600461159c565b6109d4565b6100cc61013e36600461136e565b610c0c565b6100e160015481565b6100cc61015a36600461136e565b610dd6565b6100cc61016d36600461159c565b610ee3565b6101856101803660046115d2565b611044565b604080519283526020830191909152016100eb565b6100cc6101a836600461163d565b6110a1565b6101856101bb3660046115d2565b6003602052600090815260409020805460019091015482565b6000546101e7906001600160a01b031681565b6040516001600160a01b0390911681526020016100eb565b600081815260026020526040902060018101546001600160a01b0316331480610234575060028101546001600160a01b031633145b6102855760405162461bcd60e51b815260206004820152601c60248201527f4f6e6c79207061727469636970616e74732063616e2063616e63656c0000000060448201526064015b60405180910390fd5b6000600582015460ff1660048111156102a0576102a06114ca565b036102e35760058101805460ff1916600417905560405182907f4e02dcf02d8510f6c8a6878a3c54ae6e2bfbf552df29221d7a1eed173a6b1ae790600090a25050565b6001600582015460ff1660048111156102fe576102fe6114ca565b03610459576001600582015460ff16600481111561031e5761031e6114ca565b1461035d5760405162461bcd60e51b815260206004820152600f60248201526e105b1c9958591e481cda1a5c1c1959608a1b604482015260640161027c565b60058101805460ff191660049081179091556000546001830154600384015460405163a9059cbb60e01b81526001600160a01b03928316948101949094526024840152169063a9059cbb906044016020604051808303816000875af11580156103ca573d6000803e3d6000fd5b505050506040513d601f19601f820116820180604052508101906103ee91906116e1565b61042a5760405162461bcd60e51b815260206004820152600d60248201526c1499599d5b990819985a5b1959609a1b604482015260640161027c565b60405182907f4e02dcf02d8510f6c8a6878a3c54ae6e2bfbf552df29221d7a1eed173a6b1ae790600090a25050565b60405162461bcd60e51b815260206004820152602a60248201527f43616e6e6f742063616e63656c20616674657220736869706d656e74206f722060448201526931b7b6b83632ba34b7b760b11b606482015260840161027c565b5050565b60006001600160a01b0384166105095760405162461bcd60e51b8152602060048201526016602482015275496e76616c69642073656c6c6572206164647265737360501b604482015260640161027c565b600083116105595760405162461bcd60e51b815260206004820152601d60248201527f416d6f756e74206d7573742062652067726561746572207468616e2030000000604482015260640161027c565b6001805490600061056983611719565b91905055506040518061014001604052806001548152602001336001600160a01b03168152602001856001600160a01b03168152602001848152602001838152602001600060048111156105bf576105bf6114ca565b815260006020808301829052604080518083018252838152818501528051808301825283815260608086019190915281518084018352848152608095860152600180548552600280855294839020875181559387015190840180546001600160a01b03199081166001600160a01b0393841617909155928701519484018054909316941693909317905590830151600382015590820151600482019061066590826117bd565b5060a082015160058201805460ff19166001836004811115610689576106896114ca565b021790555060c082015160058201805460ff9092166101000261ff001990921691909117905560e082015160068201906106c390826117bd565b5061010082015160078201906106d990826117bd565b5061012082015160088201906106ef90826117bd565b50905050836001600160a01b0316336001600160a01b03166001547f23f0858e8c518230f6073f26446f4a175662a838f7ddbfae36476472c03e6163868660405161073b92919061187d565b60405180910390a4506001549392505050565b60026020819052600091825260409091208054600182015492820154600383015460048401805493956001600160a01b039081169593169391929161079290611732565b80601f01602080910402602001604051908101604052809291908181526020018280546107be90611732565b801561080b5780601f106107e05761010080835404028352916020019161080b565b820191906000526020600020905b8154815290600101906020018083116107ee57829003601f168201915b505050506005830154600684018054939460ff808416956101009094041693509161083590611732565b80601f016020809104026020016040519081016040528092919081815260200182805461086190611732565b80156108ae5780601f10610883576101008083540402835291602001916108ae565b820191906000526020600020905b81548152906001019060200180831161089157829003601f168201915b5050505050908060070180546108c390611732565b80601f01602080910402602001604051908101604052809291908181526020018280546108ef90611732565b801561093c5780601f106109115761010080835404028352916020019161093c565b820191906000526020600020905b81548152906001019060200180831161091f57829003601f168201915b50505050509080600801805461095190611732565b80601f016020809104026020016040519081016040528092919081815260200182805461097d90611732565b80156109ca5780601f1061099f576101008083540402835291602001916109ca565b820191906000526020600020905b8154815290600101906020018083116109ad57829003601f168201915b505050505090508a565b600082815260026020526040902060018101546001600160a01b03163314610a3e5760405162461bcd60e51b815260206004820152601e60248201527f4f6e6c792062757965722063616e20636f6e6669726d20726563656970740000604482015260640161027c565b6002600582015460ff166004811115610a5957610a596114ca565b14610a9e5760405162461bcd60e51b815260206004820152601560248201527411dbdbd91cc81b9bdd081cda1a5c1c1959081e595d605a1b604482015260640161027c565b60018260ff1610158015610ab6575060058260ff1611155b610af75760405162461bcd60e51b8152602060048201526012602482015271526174696e67206d75737420626520312d3560701b604482015260640161027c565b60058101805460ff1916600317905560405183907fc2cbb87b5104bf7396596eae4343c4785ce549af85347af516558fc37de7be8590600090a2610b3a836111f9565b60058101805461ff00191661010060ff85169081029190911790915560028201546001600160a01b031660009081526003602052604081208054909190610b8290849061189e565b909155505060028101546001600160a01b031660009081526003602052604081206001908101805491929091610bb990849061189e565b9091555050600281015460405160ff841681526001600160a01b039091169084907fa433ab8b68d7b01805b341f1444c4fde6d23786d42dfb081f203e2c7641340ba9060200160405180910390a3505050565b600081815260026020526040902060018101546001600160a01b03163314610c6f5760405162461bcd60e51b815260206004820152601660248201527513db9b1e48189d5e595c8818d85b8819195c1bdcda5d60521b604482015260640161027c565b6000600582015460ff166004811115610c8a57610c8a6114ca565b14610cd75760405162461bcd60e51b815260206004820152601a60248201527f5472616465206e6f7420696e2043726561746564207374617465000000000000604482015260640161027c565b60005460038201546040516323b872dd60e01b815233600482015230602482015260448101919091526001600160a01b03909116906323b872dd906064016020604051808303816000875af1158015610d34573d6000803e3d6000fd5b505050506040513d601f19601f82011682018060405250810190610d5891906116e1565b610d965760405162461bcd60e51b815260206004820152600f60248201526e151c985b9cd9995c8819985a5b1959608a1b604482015260640161027c565b60058101805460ff19166001179055604051339083907f7e65965f50afb764ce4f9f36e2c26d1fd0659807dbf4a82f4251fea481b68b8890600090a35050565b600081815260026020526040902060018101546001600160a01b03163314610e405760405162461bcd60e51b815260206004820152601e60248201527f4f6e6c792062757965722063616e20636f6e6669726d20726563656970740000604482015260640161027c565b6002600582015460ff166004811115610e5b57610e5b6114ca565b14610ea05760405162461bcd60e51b815260206004820152601560248201527411dbdbd91cc81b9bdd081cda1a5c1c1959081e595d605a1b604482015260640161027c565b60058101805460ff1916600317905560405182907fc2cbb87b5104bf7396596eae4343c4785ce549af85347af516558fc37de7be8590600090a26104b4826111f9565b600082815260026020526040902060018101546001600160a01b03163314610f435760405162461bcd60e51b81526020600482015260136024820152724f6e6c792062757965722063616e207261746560681b604482015260640161027c565b6003600582015460ff166004811115610f5e57610f5e6114ca565b14610fa15760405162461bcd60e51b8152602060048201526013602482015272151c985919481b9bdd0818dbdb5c1b195d1959606a1b604482015260640161027c565b6005810154610100900460ff1615610feb5760405162461bcd60e51b815260206004820152600d60248201526c105b1c9958591e481c985d1959609a1b604482015260640161027c565b60018260ff1610158015611003575060058260ff1611155b610b3a5760405162461bcd60e51b8152602060048201526012602482015271526174696e67206d75737420626520312d3560701b604482015260640161027c565b6001600160a01b0381166000908152600360205260408120600181015482919082036110765750600093849350915050565b6001810154815461108890600a6118b7565b61109291906118ce565b81600101549250925050915091565b6000878152600260208190526040909120908101546001600160a01b0316331461110d5760405162461bcd60e51b815260206004820181905260248201527f4f6e6c792073656c6c65722063616e20636f6e6669726d20736869706d656e74604482015260640161027c565b6001600582015460ff166004811115611128576111286114ca565b1461116c5760405162461bcd60e51b8152602060048201526014602482015273119d5b991cc81b5d5cdd081899481b1bd8dad95960621b604482015260640161027c565b6006810161117b8789836118f0565b506007810161118b8587836118f0565b506008810161119b8385836118f0565b5060058101805460ff1916600217905560405188907ff7c7abaf1d3df943cd4134c703b40707ec739cb33a99e4a801a92e5ddd155201906111e7908a908a908a908a908a908a906119da565b60405180910390a25050505050505050565b60008181526002602052604090206003600582015460ff166004811115611222576112226114ca565b1461126f5760405162461bcd60e51b815260206004820152601960248201527f4d75737420626520696e20526563656976656420737461746500000000000000604482015260640161027c565b6000546002820154600383015460405163a9059cbb60e01b81526001600160a01b039283166004820152602481019190915291169063a9059cbb906044016020604051808303816000875af11580156112cc573d6000803e3d6000fd5b505050506040513d601f19601f820116820180604052508101906112f091906116e1565b61132e5760405162461bcd60e51b815260206004820152600f60248201526e151c985b9cd9995c8819985a5b1959608a1b604482015260640161027c565b60028101546040516001600160a01b039091169083907f8f5073d0a7a22ba450e278541077e181af457be74bea91e61f1f99e6bb40748e90600090a35050565b60006020828403121561138057600080fd5b5035919050565b80356001600160a01b038116811461139e57600080fd5b919050565b634e487b7160e01b600052604160045260246000fd5b6000806000606084860312156113ce57600080fd5b6113d784611387565b925060208401359150604084013567ffffffffffffffff808211156113fb57600080fd5b818601915086601f83011261140f57600080fd5b813581811115611421576114216113a3565b604051601f8201601f19908116603f01168101908382118183101715611449576114496113a3565b8160405282815289602084870101111561146257600080fd5b8260208601602083013760006020848301015280955050505050509250925092565b6000815180845260005b818110156114aa5760208185018101518683018201520161148e565b506000602082860101526020601f19601f83011685010191505092915050565b634e487b7160e01b600052602160045260246000fd5b8a81526001600160a01b038a8116602083015289166040820152606081018890526101406080820181905260009061151a8382018a611484565b90506005881061153a57634e487b7160e01b600052602160045260246000fd5b8760a084015261154f60c084018860ff169052565b82810360e08401526115618187611484565b90508281036101008401526115768186611484565b905082810361012084015261158b8185611484565b9d9c50505050505050505050505050565b600080604083850312156115af57600080fd5b82359150602083013560ff811681146115c757600080fd5b809150509250929050565b6000602082840312156115e457600080fd5b6115ed82611387565b9392505050565b60008083601f84011261160657600080fd5b50813567ffffffffffffffff81111561161e57600080fd5b60208301915083602082850101111561163657600080fd5b9250929050565b60008060008060008060006080888a03121561165857600080fd5b87359650602088013567ffffffffffffffff8082111561167757600080fd5b6116838b838c016115f4565b909850965060408a013591508082111561169c57600080fd5b6116a88b838c016115f4565b909650945060608a01359150808211156116c157600080fd5b506116ce8a828b016115f4565b989b979a50959850939692959293505050565b6000602082840312156116f357600080fd5b815180151581146115ed57600080fd5b634e487b7160e01b600052601160045260246000fd5b60006001820161172b5761172b611703565b5060010190565b600181811c9082168061174657607f821691505b60208210810361176657634e487b7160e01b600052602260045260246000fd5b50919050565b601f8211156117b8576000816000526020600020601f850160051c810160208610156117955750805b601f850160051c820191505b818110156117b4578281556001016117a1565b5050505b505050565b815167ffffffffffffffff8111156117d7576117d76113a3565b6117eb816117e58454611732565b8461176c565b602080601f83116001811461182057600084156118085750858301515b600019600386901b1c1916600185901b1785556117b4565b600085815260208120601f198616915b8281101561184f57888601518255948401946001909101908401611830565b508582101561186d5787850151600019600388901b60f8161c191681555b5050505050600190811b01905550565b8281526040602082015260006118966040830184611484565b949350505050565b808201808211156118b1576118b1611703565b92915050565b80820281158282048414176118b1576118b1611703565b6000826118eb57634e487b7160e01b600052601260045260246000fd5b500490565b67ffffffffffffffff831115611908576119086113a3565b61191c836119168354611732565b8361176c565b6000601f84116001811461195057600085156119385750838201355b600019600387901b1c1916600186901b1783556119aa565b600083815260209020601f19861690835b828110156119815786850135825560209485019460019092019101611961565b508682101561199e5760001960f88860031b161c19848701351681555b505060018560011b0183555b5050505050565b81835281816020850137506000828201602090810191909152601f909101601f19169091010190565b6060815260006119ee60608301888a6119b1565b8281036020840152611a018187896119b1565b90508281036040840152611a168185876119b1565b999850505050505050505056fea264697066735822122070f69c8c07a226530b6dba71ddab9d452b65320dab69b428a3ac3672a4444bad64736f6c63430008180033",
  "linkReferences": {},
  "deployedLinkReferences": {}
}