{
  "_format": "hh-sol-artifact-1",
  "contractName": "Escrow",
  "sourceName": "contracts/Escrow.sol",
  "abi": [
    {
      "inputs": [
        {
          "internalType": "address",
          "name": "_stablecoin",
          "type": "address"
        }
      ],
      "stateMutability": "nonpayable",
      "type": "constructor"
    },
    {
      "anonymous": false,
      "inputs": [
        {
          "indexed": true,
          "internalType": "uint256",
          "name": "tradeId",
          "type": "uint256"
        },
        {
          "indexed": true,
          "internalType": "address",
          "name": "buyer",
          "type": "address"
        }
      ],
      "name": "FundsDeposited",
      "type": "event"
    },
    {
      "anonymous": false,
      "inputs": [
        {
          "indexed": true,
          "internalType": "uint256",
          "name": "tradeId",
          "type": "uint256"
        },
        {
          "indexed": true,
          "internalType": "address",
          "name": "seller",
          "type": "address"
        }
      ],
      "name": "FundsReleased",
      "type": "event"
    },
    {
      "anonymous": false,
      "inputs": [
        {
          "indexed": true,
          "internalType": "uint256",
          "name": "tradeId",
          "type": "uint256"
        }
      ],
      "name": "TradeCancelled",
      "type": "event"
    },
    {
      "anonymous": false,
      "inputs": [
        {
          "indexed": true,
          "internalType": "uint256",
          "name": "tradeId",
          "type": "uint256"
        },
        {
          "indexed": true,
          "internalType": "address",
          "name": "buyer",
          "type": "address"
        },
        {
          "indexed": true,
          "internalType": "address",
          "name": "seller",
          "type": "address"
        },
        {
          "indexed": false,
          "internalType": "uint256",
          "name": "amount",
          "type": "uint256"
        },
        {
          "indexed": false,
          "internalType": "string",
          "name": "description",
          "type": "string"
        }
      ],
      "name": "TradeCreated",
      "type": "event"
    },
    {
      "inputs": [
        {
          "internalType": "uint256",
          "name": "_tradeId",
          "type": "uint256"
        }
      ],
      "name": "cancelTrade",
      "outputs": [],
      "stateMutability": "nonpayable",
      "type": "function"
    },
    {
      "inputs": [
        {
          "internalType": "address",
          "name": "_seller",
          "type": "address"
        },
        {
          "internalType": "uint256",
          "name": "_amount",
          "type": "uint256"
        },
        {
          "internalType": "string",
          "name": "_description",
          "type": "string"
        }
      ],
      "name": "createTrade",
      "outputs": [
        {
          "internalType": "uint256",
          "name": "",
          "type": "uint256"
        }
      ],
      "stateMutability": "nonpayable",
      "type": "function"
    },
    {
      "inputs": [
        {
          "internalType": "uint256",
          "name": "_tradeId",
          "type": "uint256"
        }
      ],
      "name": "depositFunds",
      "outputs": [],
      "stateMutability": "nonpayable",
      "type": "function"
    },
    {
      "inputs": [
        {
          "internalType": "uint256",
          "name": "_tradeId",
          "type": "uint256"
        }
      ],
      "name": "releaseFunds",
      "outputs": [],
      "stateMutability": "nonpayable",
      "type": "function"
    },
    {
      "inputs": [],
      "name": "stablecoin",
      "outputs": [
        {
          "internalType": "contract IERC20",
          "name": "",
          "type": "address"
        }
      ],
      "stateMutability": "view",
      "type": "function"
    },
    {
      "inputs": [],
      "name": "tradeCounter",
      "outputs": [
        {
          "internalType": "uint256",
          "name": "",
          "type": "uint256"
        }
      ],
      "stateMutability": "view",
      "type": "function"
    },
    {
      "inputs": [
        {
          "internalType": "uint256",
          "name": "",
          "type": "uint256"
        }
      ],
      "name": "trades",
      "outputs": [
        {
          "internalType": "uint256",
          "name": "id",
          "type": "uint256"
        },
        {
          "internalType": "address",
          "name": "buyer",
          "type": "address"
        },
        {
          "internalType": "address",
          "name": "seller",
          "type": "address"
        },
        {
          "internalType": "uint256",
          "name": "amount",
          "type": "uint256"
        },
        {
          "internalType": "string",
          "name": "description",
          "type": "string"
        },
        {
          "internalType": "enum Escrow.TradeStatus",
          "name": "status",
          "type": "uint8"
        }
      ],
      "stateMutability": "view",
      "type": "function"
    }
  ],
  "bytecode": "0x60806040523480156200001157600080fd5b5060405162001c2538038062001c258339818101604052810190620000379190620000e8565b806000806101000a81548173ffffffffffffffffffffffffffffffffffffffff021916908373ffffffffffffffffffffffffffffffffffffffff160217905550506200011a565b600080fd5b600073ffffffffffffffffffffffffffffffffffffffff82169050919050565b6000620000b08262000083565b9050919050565b620000c281620000a3565b8114620000ce57600080fd5b50565b600081519050620000e281620000b7565b92915050565b6000602082840312156200010157620001006200007e565b5b60006200011184828501620000d1565b91505092915050565b611afb806200012a6000396000f3fe608060405234801561001057600080fd5b506004361061007d5760003560e01c80633b76594d1161005b5780633b76594d146101035780634d68282f1461011f578063660d15b51461013b578063e9cbd822146101595761007d565b806309ec6cc71461008257806313b3e51f1461009e5780631e6c598e146100ce575b600080fd5b61009c60048036038101906100979190610dd6565b610177565b005b6100b860048036038101906100b39190610fa7565b61046a565b6040516100c59190611025565b60405180910390f35b6100e860048036038101906100e39190610dd6565b610719565b6040516100fa96959493929190611145565b60405180910390f35b61011d60048036038101906101189190610dd6565b61082a565b005b61013960048036038101906101349190610dd6565b610aa3565b005b610143610d62565b6040516101509190611025565b60405180910390f35b610161610d68565b60405161016e919061120c565b60405180910390f35b60006002600083815260200190815260200160002090508060010160009054906101000a900473ffffffffffffffffffffffffffffffffffffffff1673ffffffffffffffffffffffffffffffffffffffff163373ffffffffffffffffffffffffffffffffffffffff16148061023b57508060020160009054906101000a900473ffffffffffffffffffffffffffffffffffffffff1673ffffffffffffffffffffffffffffffffffffffff163373ffffffffffffffffffffffffffffffffffffffff16145b61027a576040517f08c379a000000000000000000000000000000000000000000000000000000000815260040161027190611273565b60405180910390fd5b6001600381111561028e5761028d6110ce565b5b8160050160009054906101000a900460ff1660038111156102b2576102b16110ce565b5b0361038e57600060038111156102cb576102ca6110ce565b5b8160050160009054906101000a900460ff1660038111156102ef576102ee6110ce565b5b1461032f576040517f08c379a000000000000000000000000000000000000000000000000000000000815260040161032690611305565b60405180910390fd5b60038160050160006101000a81548160ff02191690836003811115610357576103566110ce565b5b0217905550817f4e02dcf02d8510f6c8a6878a3c54ae6e2bfbf552df29221d7a1eed173a6b1ae760405160405180910390a2610466565b600060038111156103a2576103a16110ce565b5b8160050160009054906101000a900460ff1660038111156103c6576103c56110ce565b5b0361042a5760038160050160006101000a81548160ff021916908360038111156103f3576103f26110ce565b5b0217905550817f4e02dcf02d8510f6c8a6878a3c54ae6e2bfbf552df29221d7a1eed173a6b1ae760405160405180910390a2610465565b6040517f08c379a000000000000000000000000000000000000000000000000000000000815260040161045c90611371565b60405180910390fd5b5b5050565b60008073ffffffffffffffffffffffffffffffffffffffff168473ffffffffffffffffffffffffffffffffffffffff16036104da576040517f08c379a00000000000000000000000000000000000000000000000000000000081526004016104d1906113dd565b60405180910390fd5b6000831161051d576040517f08c379a000000000000000000000000000000000000000000000000000000000815260040161051490611449565b60405180910390fd5b6001600081548092919061053090611498565b91905055506040518060c0016040528060015481526020013373ffffffffffffffffffffffffffffffffffffffff1681526020018573ffffffffffffffffffffffffffffffffffffffff168152602001848152602001838152602001600060038111156105a05761059f6110ce565b5b8152506002600060015481526020019081526020016000206000820151816000015560208201518160010160006101000a81548173ffffffffffffffffffffffffffffffffffffffff021916908373ffffffffffffffffffffffffffffffffffffffff16021790555060408201518160020160006101000a81548173ffffffffffffffffffffffffffffffffffffffff021916908373ffffffffffffffffffffffffffffffffffffffff16021790555060608201518160030155608082015181600401908161066f91906116e2565b5060a08201518160050160006101000a81548160ff0219169083600381111561069b5761069a6110ce565b5b02179055509050508373ffffffffffffffffffffffffffffffffffffffff163373ffffffffffffffffffffffffffffffffffffffff166001547f23f0858e8c518230f6073f26446f4a175662a838f7ddbfae36476472c03e616386866040516107059291906117b4565b60405180910390a460015490509392505050565b60026020528060005260406000206000915090508060000154908060010160009054906101000a900473ffffffffffffffffffffffffffffffffffffffff16908060020160009054906101000a900473ffffffffffffffffffffffffffffffffffffffff16908060030154908060040180546107949061150f565b80601f01602080910402602001604051908101604052809291908181526020018280546107c09061150f565b801561080d5780601f106107e25761010080835404028352916020019161080d565b820191906000526020600020905b8154815290600101906020018083116107f057829003601f168201915b5050505050908060050160009054906101000a900460ff16905086565b60006002600083815260200190815260200160002090503373ffffffffffffffffffffffffffffffffffffffff168160010160009054906101000a900473ffffffffffffffffffffffffffffffffffffffff1673ffffffffffffffffffffffffffffffffffffffff16146108d3576040517f08c379a00000000000000000000000000000000000000000000000000000000081526004016108ca90611830565b60405180910390fd5b600060038111156108e7576108e66110ce565b5b8160050160009054906101000a900460ff16600381111561090b5761090a6110ce565b5b1461094b576040517f08c379a00000000000000000000000000000000000000000000000000000000081526004016109429061189c565b60405180910390fd5b60008054906101000a900473ffffffffffffffffffffffffffffffffffffffff1673ffffffffffffffffffffffffffffffffffffffff166323b872dd333084600301546040518463ffffffff1660e01b81526004016109ac939291906118bc565b6020604051808303816000875af11580156109cb573d6000803e3d6000fd5b505050506040513d601f19601f820116820180604052508101906109ef919061192b565b610a2e576040517f08c379a0000000000000000000000000000000000000000000000000000000008152600401610a25906119a4565b60405180910390fd5b60018160050160006101000a81548160ff02191690836003811115610a5657610a556110ce565b5b02179055503373ffffffffffffffffffffffffffffffffffffffff16827f7e65965f50afb764ce4f9f36e2c26d1fd0659807dbf4a82f4251fea481b68b8860405160405180910390a35050565b60006002600083815260200190815260200160002090508060010160009054906101000a900473ffffffffffffffffffffffffffffffffffffffff1673ffffffffffffffffffffffffffffffffffffffff163373ffffffffffffffffffffffffffffffffffffffff1614610b4c576040517f08c379a0000000000000000000000000000000000000000000000000000000008152600401610b4390611a10565b60405180910390fd5b60016003811115610b6057610b5f6110ce565b5b8160050160009054906101000a900460ff166003811115610b8457610b836110ce565b5b14610bc4576040517f08c379a0000000000000000000000000000000000000000000000000000000008152600401610bbb90611a7c565b60405180910390fd5b60028160050160006101000a81548160ff02191690836003811115610bec57610beb6110ce565b5b021790555060008054906101000a900473ffffffffffffffffffffffffffffffffffffffff1673ffffffffffffffffffffffffffffffffffffffff1663a9059cbb8260020160009054906101000a900473ffffffffffffffffffffffffffffffffffffffff1683600301546040518363ffffffff1660e01b8152600401610c74929190611a9c565b6020604051808303816000875af1158015610c93573d6000803e3d6000fd5b505050506040513d601f19601f82011682018060405250810190610cb7919061192b565b610cf6576040517f08c379a0000000000000000000000000000000000000000000000000000000008152600401610ced906119a4565b60405180910390fd5b8060020160009054906101000a900473ffffffffffffffffffffffffffffffffffffffff1673ffffffffffffffffffffffffffffffffffffffff16827f8f5073d0a7a22ba450e278541077e181af457be74bea91e61f1f99e6bb40748e60405160405180910390a35050565b60015481565b60008054906101000a900473ffffffffffffffffffffffffffffffffffffffff1681565b6000604051905090565b600080fd5b600080fd5b6000819050919050565b610db381610da0565b8114610dbe57600080fd5b50565b600081359050610dd081610daa565b92915050565b600060208284031215610dec57610deb610d96565b5b6000610dfa84828501610dc1565b91505092915050565b600073ffffffffffffffffffffffffffffffffffffffff82169050919050565b6000610e2e82610e03565b9050919050565b610e3e81610e23565b8114610e4957600080fd5b50565b600081359050610e5b81610e35565b92915050565b600080fd5b600080fd5b6000601f19601f8301169050919050565b7f4e487b7100000000000000000000000000000000000000000000000000000000600052604160045260246000fd5b610eb482610e6b565b810181811067ffffffffffffffff82111715610ed357610ed2610e7c565b5b80604052505050565b6000610ee6610d8c565b9050610ef28282610eab565b919050565b600067ffffffffffffffff821115610f1257610f11610e7c565b5b610f1b82610e6b565b9050602081019050919050565b82818337600083830152505050565b6000610f4a610f4584610ef7565b610edc565b905082815260208101848484011115610f6657610f65610e66565b5b610f71848285610f28565b509392505050565b600082601f830112610f8e57610f8d610e61565b5b8135610f9e848260208601610f37565b91505092915050565b600080600060608486031215610fc057610fbf610d96565b5b6000610fce86828701610e4c565b9350506020610fdf86828701610dc1565b925050604084013567ffffffffffffffff81111561100057610fff610d9b565b5b61100c86828701610f79565b9150509250925092565b61101f81610da0565b82525050565b600060208201905061103a6000830184611016565b92915050565b61104981610e23565b82525050565b600081519050919050565b600082825260208201905092915050565b60005b8381101561108957808201518184015260208101905061106e565b60008484015250505050565b60006110a08261104f565b6110aa818561105a565b93506110ba81856020860161106b565b6110c381610e6b565b840191505092915050565b7f4e487b7100000000000000000000000000000000000000000000000000000000600052602160045260246000fd5b6004811061110e5761110d6110ce565b5b50565b600081905061111f826110fd565b919050565b600061112f82611111565b9050919050565b61113f81611124565b82525050565b600060c08201905061115a6000830189611016565b6111676020830188611040565b6111746040830187611040565b6111816060830186611016565b81810360808301526111938185611095565b90506111a260a0830184611136565b979650505050505050565b6000819050919050565b60006111d26111cd6111c884610e03565b6111ad565b610e03565b9050919050565b60006111e4826111b7565b9050919050565b60006111f6826111d9565b9050919050565b611206816111eb565b82525050565b600060208201905061122160008301846111fd565b92915050565b7f4f6e6c79207061727469636970616e74732063616e2063616e63656c00000000600082015250565b600061125d601c8361105a565b915061126882611227565b602082019050919050565b6000602082019050818103600083015261128c81611250565b9050919050565b7f43616e6e6f742063616e63656c206c6f636b656420747261646520776974686f60008201527f7574206172626974726174696f6e20286e6f7420696d706c656d656e74656429602082015250565b60006112ef60408361105a565b91506112fa82611293565b604082019050919050565b6000602082019050818103600083015261131e816112e2565b9050919050565b7f43616e6e6f742063616e63656c2066696e697368656420747261646500000000600082015250565b600061135b601c8361105a565b915061136682611325565b602082019050919050565b6000602082019050818103600083015261138a8161134e565b9050919050565b7f496e76616c69642073656c6c6572206164647265737300000000000000000000600082015250565b60006113c760168361105a565b91506113d282611391565b602082019050919050565b600060208201905081810360008301526113f6816113ba565b9050919050565b7f416d6f756e74206d7573742062652067726561746572207468616e2030000000600082015250565b6000611433601d8361105a565b915061143e826113fd565b602082019050919050565b6000602082019050818103600083015261146281611426565b9050919050565b7f4e487b7100000000000000000000000000000000000000000000000000000000600052601160045260246000fd5b60006114a382610da0565b91507fffffffffffffffffffffffffffffffffffffffffffffffffffffffffffffffff82036114d5576114d4611469565b5b600182019050919050565b7f4e487b7100000000000000000000000000000000000000000000000000000000600052602260045260246000fd5b6000600282049050600182168061152757607f821691505b60208210810361153a576115396114e0565b5b50919050565b60008190508160005260206000209050919050565b60006020601f8301049050919050565b600082821b905092915050565b6000600883026115a27fffffffffffffffffffffffffffffffffffffffffffffffffffffffffffffffff82611565565b6115ac8683611565565b95508019841693508086168417925050509392505050565b60006115df6115da6115d584610da0565b6111ad565b610da0565b9050919050565b6000819050919050565b6115f9836115c4565b61160d611605826115e6565b848454611572565b825550505050565b600090565b611622611615565b61162d8184846115f0565b505050565b5b818110156116515761164660008261161a565b600181019050611633565b5050565b601f8211156116965761166781611540565b61167084611555565b8101602085101561167f578190505b61169361168b85611555565b830182611632565b50505b505050565b600082821c905092915050565b60006116b96000198460080261169b565b1980831691505092915050565b60006116d283836116a8565b9150826002028217905092915050565b6116eb8261104f565b67ffffffffffffffff81111561170457611703610e7c565b5b61170e825461150f565b611719828285611655565b600060209050601f83116001811461174c576000841561173a578287015190505b61174485826116c6565b8655506117ac565b601f19841661175a86611540565b60005b828110156117825784890151825560018201915060208501945060208101905061175d565b8683101561179f578489015161179b601f8916826116a8565b8355505b6001600288020188555050505b505050505050565b60006040820190506117c96000830185611016565b81810360208301526117db8184611095565b90509392505050565b7f4f6e6c792062757965722063616e206465706f73697400000000000000000000600082015250565b600061181a60168361105a565b9150611825826117e4565b602082019050919050565b600060208201905081810360008301526118498161180d565b9050919050565b7f5472616465206e6f7420696e2043726561746564207374617465000000000000600082015250565b6000611886601a8361105a565b915061189182611850565b602082019050919050565b600060208201905081810360008301526118b581611879565b9050919050565b60006060820190506118d16000830186611040565b6118de6020830185611040565b6118eb6040830184611016565b949350505050565b60008115159050919050565b611908816118f3565b811461191357600080fd5b50565b600081519050611925816118ff565b92915050565b60006020828403121561194157611940610d96565b5b600061194f84828501611916565b91505092915050565b7f5472616e73666572206661696c65640000000000000000000000000000000000600082015250565b600061198e600f8361105a565b915061199982611958565b602082019050919050565b600060208201905081810360008301526119bd81611981565b9050919050565b7f4f6e6c792062757965722063616e2072656c656173652066756e647300000000600082015250565b60006119fa601c8361105a565b9150611a05826119c4565b602082019050919050565b60006020820190508181036000830152611a29816119ed565b9050919050565b7f46756e6473206e6f74206c6f636b656400000000000000000000000000000000600082015250565b6000611a6660108361105a565b9150611a7182611a30565b602082019050919050565b60006020820190508181036000830152611a9581611a59565b9050919050565b6000604082019050611ab16000830185611040565b611abe6020830184611016565b939250505056fea26469706673582212200b5d42784a0827aa4d7373e702fcbcca6235cf6bd18d00c05c2ab37bf228440b64736f6c63430008180033",
  "linkReferences": {},
  "deployedLinkReferences": {}
}