{
  "_format": "hh-sol-artifact-1",
  "contractName": "Escrow",
  "sourceName": "contracts/Escrow.sol",
  "abi": [
    {
      "inputs": [
        {
          "internalType": "address",
          "name": "_stablecoin",
          "type": "address"
        }
      ],
      "stateMutability": "nonpayable",
      "type": "constructor"
    },
    {
      "anonymous": false,
      "inputs": [
        {
          "indexed": true,
          "internalType": "uint256",
          "name": "tradeId",
          "type": "uint256"
        },
        {
          "indexed": true,
          "internalType": "address",
          "name": "seller",
          "type": "address"
        },
        {
          "indexed": false,
          "internalType": "uint8",
          "name": "rating",
          "type": "uint8"
        }
      ],
      "name": "ExporterRated",
      "type": "event"
    },
    {
      "anonymous": false,
      "inputs": [
        {
          "indexed": true,
          "internalType": "uint256",
          "name": "tradeId",
          "type": "uint256"
        },
        {
          "indexed": true,
          "internalType": "address",
          "name": "buyer",
          "type": "address"
        }
      ],
      "name": "FundsDeposited",
      "type": "event"
    },
    {
      "anonymous": false,
      "inputs": [
        {
          "indexed": true,
          "internalType": "uint256",
          "name": "tradeId",
          "type": "uint256"
        },
        {
          "indexed": true,
          "internalType": "address",
          "name": "seller",
          "type": "address"
        }
      ],
      "name": "FundsReleased",
      "type": "event"
    },
    {
      "anonymous": false,
      "inputs": [
        {
          "indexed": true,
          "internalType": "uint256",
          "name": "tradeId",
          "type": "uint256"
        }
      ],
      "name": "TradeCancelled",
      "type": "event"
    },
    {
      "anonymous": false,
      "inputs": [
        {
          "indexed": true,
          "internalType": "uint256",
          "name": "tradeId",
          "type": "uint256"
        },
        {
          "indexed": true,
          "internalType": "address",
          "name": "buyer",
          "type": "address"
        },
        {
          "indexed": true,
          "internalType": "address",
          "name": "seller",
          "type": "address"
        },
        {
          "indexed": false,
          "internalType": "uint256",
          "name": "amount",
          "type": "uint256"
        },
        {
          "indexed": false,
          "internalType": "string",
          "name": "description",
          "type": "string"
        }
      ],
      "name": "TradeCreated",
      "type": "event"
    },
    {
      "anonymous": false,
      "inputs": [
        {
          "indexed": true,
          "internalType": "uint256",
          "name": "tradeId",
          "type": "uint256"
        }
      ],
      "name": "TradeReceived",
      "type": "event"
    },
    {
      "anonymous": false,
      "inputs": [
        {
          "indexed": true,
          "internalType": "uint256",
          "name": "tradeId",
          "type": "uint256"
        },
        {
          "indexed": false,
          "internalType": "string",
          "name": "trackingNumber",
          "type": "string"
        },
        {
          "indexed": false,
          "internalType": "string",
          "name": "shippingMethod",
          "type": "string"
        },
        {
          "indexed": false,
          "internalType": "string",
          "name": "remarks",
          "type": "string"
        }
      ],
      "name": "TradeShipped",
      "type": "event"
    },
    {
      "inputs": [
        {
          "internalType": "uint256",
          "name": "_tradeId",
          "type": "uint256"
        }
      ],
      "name": "cancelTrade",
      "outputs": [],
      "stateMutability": "nonpayable",
      "type": "function"
    },
    {
      "inputs": [
        {
          "internalType": "uint256",
          "name": "_tradeId",
          "type": "uint256"
        }
      ],
      "name": "confirmReceipt",
      "outputs": [],
      "stateMutability": "nonpayable",
      "type": "function"
    },
    {
      "inputs": [
        {
          "internalType": "uint256",
          "name": "_tradeId",
          "type": "uint256"
        },
        {
          "internalType": "uint8",
          "name": "_rating",
          "type": "uint8"
        }
      ],
      "name": "confirmReceiptAndRate",
      "outputs": [],
      "stateMutability": "nonpayable",
      "type": "function"
    },
    {
      "inputs": [
        {
          "internalType": "uint256",
          "name": "_tradeId",
          "type": "uint256"
        },
        {
          "internalType": "string",
          "name": "_trackingNumber",
          "type": "string"
        },
        {
          "internalType": "string",
          "name": "_shippingMethod",
          "type": "string"
        },
        {
          "internalType": "string",
          "name": "_remarks",
          "type": "string"
        }
      ],
      "name": "confirmShipment",
      "outputs": [],
      "stateMutability": "nonpayable",
      "type": "function"
    },
    {
      "inputs": [
        {
          "internalType": "address",
          "name": "_seller",
          "type": "address"
        },
        {
          "internalType": "uint256",
          "name": "_amount",
          "type": "uint256"
        },
        {
          "internalType": "string",
          "name": "_description",
          "type": "string"
        }
      ],
      "name": "createTrade",
      "outputs": [
        {
          "internalType": "uint256",
          "name": "",
          "type": "uint256"
        }
      ],
      "stateMutability": "nonpayable",
      "type": "function"
    },
    {
      "inputs": [
        {
          "internalType": "uint256",
          "name": "_tradeId",
          "type": "uint256"
        }
      ],
      "name": "depositFunds",
      "outputs": [],
      "stateMutability": "nonpayable",
      "type": "function"
    },
    {
      "inputs": [
        {
          "internalType": "uint256",
          "name": "_tradeId",
          "type": "uint256"
        },
        {
          "internalType": "address",
          "name": "_buyer",
          "type": "address"
        }
      ],
      "name": "depositFundsFor",
      "outputs": [],
      "stateMutability": "nonpayable",
      "type": "function"
    },
    {
      "inputs": [
        {
          "internalType": "address",
          "name": "_seller",
          "type": "address"
        }
      ],
      "name": "getSellerReputation",
      "outputs": [
        {
          "internalType": "uint256",
          "name": "averageRating",
          "type": "uint256"
        },
        {
          "internalType": "uint256",
          "name": "totalTrades",
          "type": "uint256"
        }
      ],
      "stateMutability": "view",
      "type": "function"
    },
    {
      "inputs": [
        {
          "internalType": "uint256",
          "name": "_tradeId",
          "type": "uint256"
        },
        {
          "internalType": "uint8",
          "name": "_rating",
          "type": "uint8"
        }
      ],
      "name": "rateExporter",
      "outputs": [],
      "stateMutability": "nonpayable",
      "type": "function"
    },
    {
      "inputs": [
        {
          "internalType": "address",
          "name": "",
          "type": "address"
        }
      ],
      "name": "sellerStats",
      "outputs": [
        {
          "internalType": "uint256",
          "name": "totalRating",
          "type": "uint256"
        },
        {
          "internalType": "uint256",
          "name": "totalTrades",
          "type": "uint256"
        }
      ],
      "stateMutability": "view",
      "type": "function"
    },
    {
      "inputs": [],
      "name": "stablecoin",
      "outputs": [
        {
          "internalType": "contract IERC20",
          "name": "",
          "type": "address"
        }
      ],
      "stateMutability": "view",
      "type": "function"
    },
    {
      "inputs": [],
      "name": "tradeCounter",
      "outputs": [
        {
          "internalType": "uint256",
          "name": "",
          "type": "uint256"
        }
      ],
      "stateMutability": "view",
      "type": "function"
    },
    {
      "inputs": [
        {
          "internalType": "uint256",
          "name": "",
          "type": "uint256"
        }
      ],
      "name": "trades",
      "outputs": [
        {
          "internalType": "uint256",
          "name": "id",
          "type": "uint256"
        },
        {
          "internalType": "address",
          "name": "buyer",
          "type": "address"
        },
        {
          "internalType": "address",
          "name": "seller",
          "type": "address"
        },
        {
          "internalType": "uint256",
          "name": "amount",
          "type": "uint256"
        },
        {
          "internalType": "string",
          "name": "description",
          "type": "string"
        },
        {
          "internalType": "enum Escrow.TradeStatus",
          "name": "status",
          "type": "uint8"
        },
        {
          "internalType": "uint8",
          "name": "rating",
          "type": "uint8"
        },
        {
          "internalType": "string",
          "name": "trackingNumber",
          "type": "string"
        },
        {
          "internalType": "string",
          "name": "shippingMethod",
          "type": "string"
        },
        {
          "internalType": "string",
          "name": "remarks",
          "type": "string"
        }
      ],
      "stateMutability": "view",
      "type": "function"
    }
  ],
  "bytecode": "0x608060405234801561001057600080fd5b50604051611cdd380380611cdd83398101604081905261002f91610054565b600080546001600160a01b0319166001600160a01b0392909216919091179055610084565b60006020828403121561006657600080fd5b81516001600160a01b038116811461007d57600080fd5b9392505050565b611c4a806100936000396000f3fe608060405234801561001057600080fd5b50600436106100cf5760003560e01c8063660d15b51161008c578063d1be75f611610066578063d1be75f6146101a0578063e1eaeb42146101c8578063e5b0117a146101db578063e9cbd8221461020257600080fd5b8063660d15b514610171578063843cba131461017a578063996d5c4f1461018d57600080fd5b806309ec6cc7146100d457806313b3e51f146100e95780631e6c598e1461010f5780633985f0a0146101385780633b76594d1461014b578063412b96dd1461015e575b600080fd5b6100e76100e236600461150a565b61022d565b005b6100fc6100f7366004611555565b6104e6565b6040519081526020015b60405180910390f35b61012261011d36600461150a565b61077c565b6040516101069a9998979695949392919061167c565b6100e7610146366004611738565b610a02565b6100e761015936600461150a565b610c3a565b6100e761016c36600461176e565b610de2565b6100fc60015481565b6100e761018836600461150a565b610f94565b6100e761019b366004611738565b6110a1565b6101b36101ae36600461179a565b611202565b60408051928352602083019190915201610106565b6100e76101d6366004611805565b61125f565b6101b36101e936600461179a565b6003602052600090815260409020805460019091015482565b600054610215906001600160a01b031681565b6040516001600160a01b039091168152602001610106565b600081815260026020526040902060018101546001600160a01b0316331480610262575060028101546001600160a01b031633145b6102b35760405162461bcd60e51b815260206004820152601c60248201527f4f6e6c79207061727469636970616e74732063616e2063616e63656c0000000060448201526064015b60405180910390fd5b6000600582015460ff1660048111156102ce576102ce611666565b036103115760058101805460ff1916600417905560405182907f4e02dcf02d8510f6c8a6878a3c54ae6e2bfbf552df29221d7a1eed173a6b1ae790600090a25050565b6001600582015460ff16600481111561032c5761032c611666565b03610487576001600582015460ff16600481111561034c5761034c611666565b1461038b5760405162461bcd60e51b815260206004820152600f60248201526e105b1c9958591e481cda1a5c1c1959608a1b60448201526064016102aa565b60058101805460ff191660049081179091556000546001830154600384015460405163a9059cbb60e01b81526001600160a01b03928316948101949094526024840152169063a9059cbb906044016020604051808303816000875af11580156103f8573d6000803e3d6000fd5b505050506040513d601f19601f8201168201806040525081019061041c91906118a9565b6104585760405162461bcd60e51b815260206004820152600d60248201526c1499599d5b990819985a5b1959609a1b60448201526064016102aa565b60405182907f4e02dcf02d8510f6c8a6878a3c54ae6e2bfbf552df29221d7a1eed173a6b1ae790600090a25050565b60405162461bcd60e51b815260206004820152602a60248201527f43616e6e6f742063616e63656c20616674657220736869706d656e74206f722060448201526931b7b6b83632ba34b7b760b11b60648201526084016102aa565b5050565b60006001600160a01b0384166105375760405162461bcd60e51b8152602060048201526016602482015275496e76616c69642073656c6c6572206164647265737360501b60448201526064016102aa565b600083116105875760405162461bcd60e51b815260206004820152601d60248201527f416d6f756e74206d7573742062652067726561746572207468616e203000000060448201526064016102aa565b60018054906000610597836118e1565b91905055506040518061014001604052806001548152602001336001600160a01b03168152602001856001600160a01b03168152602001848152602001838152602001600060048111156105ed576105ed611666565b815260006020808301829052604080518083018252838152818501528051808301825283815260608086019190915281518084018352848152608095860152600180548552600280855294839020875181559387015190840180546001600160a01b03199081166001600160a01b039384161790915592870151948401805490931694169390931790559083015160038201559082015160048201906106939082611985565b5060a082015160058201805460ff191660018360048111156106b7576106b7611666565b021790555060c082015160058201805460ff9092166101000261ff001990921691909117905560e082015160068201906106f19082611985565b5061010082015160078201906107079082611985565b50610120820151600882019061071d9082611985565b50905050836001600160a01b0316336001600160a01b03166001547f23f0858e8c518230f6073f26446f4a175662a838f7ddbfae36476472c03e61638686604051610769929190611a45565b60405180910390a4506001549392505050565b60026020819052600091825260409091208054600182015492820154600383015460048401805493956001600160a01b03908116959316939192916107c0906118fa565b80601f01602080910402602001604051908101604052809291908181526020018280546107ec906118fa565b80156108395780601f1061080e57610100808354040283529160200191610839565b820191906000526020600020905b81548152906001019060200180831161081c57829003601f168201915b505050506005830154600684018054939460ff8084169561010090940416935091610863906118fa565b80601f016020809104026020016040519081016040528092919081815260200182805461088f906118fa565b80156108dc5780601f106108b1576101008083540402835291602001916108dc565b820191906000526020600020905b8154815290600101906020018083116108bf57829003601f168201915b5050505050908060070180546108f1906118fa565b80601f016020809104026020016040519081016040528092919081815260200182805461091d906118fa565b801561096a5780601f1061093f5761010080835404028352916020019161096a565b820191906000526020600020905b81548152906001019060200180831161094d57829003601f168201915b50505050509080600801805461097f906118fa565b80601f01602080910402602001604051908101604052809291908181526020018280546109ab906118fa565b80156109f85780601f106109cd576101008083540402835291602001916109f8565b820191906000526020600020905b8154815290600101906020018083116109db57829003601f168201915b505050505090508a565b600082815260026020526040902060018101546001600160a01b03163314610a6c5760405162461bcd60e51b815260206004820152601e60248201527f4f6e6c792062757965722063616e20636f6e6669726d2072656365697074000060448201526064016102aa565b6002600582015460ff166004811115610a8757610a87611666565b14610acc5760405162461bcd60e51b815260206004820152601560248201527411dbdbd91cc81b9bdd081cda1a5c1c1959081e595d605a1b60448201526064016102aa565b60018260ff1610158015610ae4575060058260ff1611155b610b255760405162461bcd60e51b8152602060048201526012602482015271526174696e67206d75737420626520312d3560701b60448201526064016102aa565b60058101805460ff1916600317905560405183907fc2cbb87b5104bf7396596eae4343c4785ce549af85347af516558fc37de7be8590600090a2610b68836113b7565b60058101805461ff00191661010060ff85169081029190911790915560028201546001600160a01b031660009081526003602052604081208054909190610bb0908490611a66565b909155505060028101546001600160a01b031660009081526003602052604081206001908101805491929091610be7908490611a66565b9091555050600281015460405160ff841681526001600160a01b039091169084907fa433ab8b68d7b01805b341f1444c4fde6d23786d42dfb081f203e2c7641340ba9060200160405180910390a3505050565b600081815260026020526040902060018101546001600160a01b03163314610c9d5760405162461bcd60e51b815260206004820152601660248201527513db9b1e48189d5e595c8818d85b8819195c1bdcda5d60521b60448201526064016102aa565b6000600582015460ff166004811115610cb857610cb8611666565b14610d055760405162461bcd60e51b815260206004820152601a60248201527f5472616465206e6f7420696e204372656174656420737461746500000000000060448201526064016102aa565b60005460038201546040516323b872dd60e01b815233600482015230602482015260448101919091526001600160a01b03909116906323b872dd906064016020604051808303816000875af1158015610d62573d6000803e3d6000fd5b505050506040513d601f19601f82011682018060405250810190610d8691906118a9565b610da25760405162461bcd60e51b81526004016102aa90611a7f565b60058101805460ff19166001179055604051339083907f7e65965f50afb764ce4f9f36e2c26d1fd0659807dbf4a82f4251fea481b68b8890600090a35050565b600082815260026020526040902060018101546001600160a01b03838116911614610e455760405162461bcd60e51b81526020600482015260136024820152722737ba103a3432903a3930b23290313abcb2b960691b60448201526064016102aa565b6000600582015460ff166004811115610e6057610e60611666565b14610ead5760405162461bcd60e51b815260206004820152601a60248201527f5472616465206e6f7420696e204372656174656420737461746500000000000060448201526064016102aa565b60005460038201546040516323b872dd60e01b815233600482015230602482015260448101919091526001600160a01b03909116906323b872dd906064016020604051808303816000875af1158015610f0a573d6000803e3d6000fd5b505050506040513d601f19601f82011682018060405250810190610f2e91906118a9565b610f4a5760405162461bcd60e51b81526004016102aa90611a7f565b60058101805460ff191660011790556040516001600160a01b0383169084907f7e65965f50afb764ce4f9f36e2c26d1fd0659807dbf4a82f4251fea481b68b8890600090a3505050565b600081815260026020526040902060018101546001600160a01b03163314610ffe5760405162461bcd60e51b815260206004820152601e60248201527f4f6e6c792062757965722063616e20636f6e6669726d2072656365697074000060448201526064016102aa565b6002600582015460ff16600481111561101957611019611666565b1461105e5760405162461bcd60e51b815260206004820152601560248201527411dbdbd91cc81b9bdd081cda1a5c1c1959081e595d605a1b60448201526064016102aa565b60058101805460ff1916600317905560405182907fc2cbb87b5104bf7396596eae4343c4785ce549af85347af516558fc37de7be8590600090a26104e2826113b7565b600082815260026020526040902060018101546001600160a01b031633146111015760405162461bcd60e51b81526020600482015260136024820152724f6e6c792062757965722063616e207261746560681b60448201526064016102aa565b6003600582015460ff16600481111561111c5761111c611666565b1461115f5760405162461bcd60e51b8152602060048201526013602482015272151c985919481b9bdd0818dbdb5c1b195d1959606a1b60448201526064016102aa565b6005810154610100900460ff16156111a95760405162461bcd60e51b815260206004820152600d60248201526c105b1c9958591e481c985d1959609a1b60448201526064016102aa565b60018260ff16101580156111c1575060058260ff1611155b610b685760405162461bcd60e51b8152602060048201526012602482015271526174696e67206d75737420626520312d3560701b60448201526064016102aa565b6001600160a01b0381166000908152600360205260408120600181015482919082036112345750600093849350915050565b6001810154815461124690600a611aa8565b6112509190611abf565b81600101549250925050915091565b6000878152600260208190526040909120908101546001600160a01b031633146112cb5760405162461bcd60e51b815260206004820181905260248201527f4f6e6c792073656c6c65722063616e20636f6e6669726d20736869706d656e7460448201526064016102aa565b6001600582015460ff1660048111156112e6576112e6611666565b1461132a5760405162461bcd60e51b8152602060048201526014602482015273119d5b991cc81b5d5cdd081899481b1bd8dad95960621b60448201526064016102aa565b60068101611339878983611ae1565b5060078101611349858783611ae1565b5060088101611359838583611ae1565b5060058101805460ff1916600217905560405188907ff7c7abaf1d3df943cd4134c703b40707ec739cb33a99e4a801a92e5ddd155201906113a5908a908a908a908a908a908a90611bcb565b60405180910390a25050505050505050565b60008181526002602052604090206003600582015460ff1660048111156113e0576113e0611666565b1461142d5760405162461bcd60e51b815260206004820152601960248201527f4d75737420626520696e2052656365697665642073746174650000000000000060448201526064016102aa565b6000546002820154600383015460405163a9059cbb60e01b81526001600160a01b039283166004820152602481019190915291169063a9059cbb906044016020604051808303816000875af115801561148a573d6000803e3d6000fd5b505050506040513d601f19601f820116820180604052508101906114ae91906118a9565b6114ca5760405162461bcd60e51b81526004016102aa90611a7f565b60028101546040516001600160a01b039091169083907f8f5073d0a7a22ba450e278541077e181af457be74bea91e61f1f99e6bb40748e90600090a35050565b60006020828403121561151c57600080fd5b5035919050565b80356001600160a01b038116811461153a57600080fd5b919050565b634e487b7160e01b600052604160045260246000fd5b60008060006060848603121561156a57600080fd5b61157384611523565b925060208401359150604084013567ffffffffffffffff8082111561159757600080fd5b818601915086601f8301126115ab57600080fd5b8135818111156115bd576115bd61153f565b604051601f8201601f19908116603f011681019083821181831017156115e5576115e561153f565b816040528281528960208487010111156115fe57600080fd5b8260208601602083013760006020848301015280955050505050509250925092565b6000815180845260005b818110156116465760208185018101518683018201520161162a565b506000602082860101526020601f19601f83011685010191505092915050565b634e487b7160e01b600052602160045260246000fd5b8a81526001600160a01b038a811660208301528916604082015260608101889052610140608082018190526000906116b68382018a611620565b9050600588106116d657634e487b7160e01b600052602160045260246000fd5b8760a08401526116eb60c084018860ff169052565b82810360e08401526116fd8187611620565b90508281036101008401526117128186611620565b90508281036101208401526117278185611620565b9d9c50505050505050505050505050565b6000806040838503121561174b57600080fd5b82359150602083013560ff8116811461176357600080fd5b809150509250929050565b6000806040838503121561178157600080fd5b8235915061179160208401611523565b90509250929050565b6000602082840312156117ac57600080fd5b6117b582611523565b9392505050565b60008083601f8401126117ce57600080fd5b50813567ffffffffffffffff8111156117e657600080fd5b6020830191508360208285010111156117fe57600080fd5b9250929050565b60008060008060008060006080888a03121561182057600080fd5b87359650602088013567ffffffffffffffff8082111561183f57600080fd5b61184b8b838c016117bc565b909850965060408a013591508082111561186457600080fd5b6118708b838c016117bc565b909650945060608a013591508082111561188957600080fd5b506118968a828b016117bc565b989b979a50959850939692959293505050565b6000602082840312156118bb57600080fd5b815180151581146117b557600080fd5b634e487b7160e01b600052601160045260246000fd5b6000600182016118f3576118f36118cb565b5060010190565b600181811c9082168061190e57607f821691505b60208210810361192e57634e487b7160e01b600052602260045260246000fd5b50919050565b601f821115611980576000816000526020600020601f850160051c8101602086101561195d5750805b601f850160051c820191505b8181101561197c57828155600101611969565b5050505b505050565b815167ffffffffffffffff81111561199f5761199f61153f565b6119b3816119ad84546118fa565b84611934565b602080601f8311600181146119e857600084156119d05750858301515b600019600386901b1c1916600185901b17855561197c565b600085815260208120601f198616915b82811015611a17578886015182559484019460019091019084016119f8565b5085821015611a355787850151600019600388901b60f8161c191681555b5050505050600190811b01905550565b828152604060208201526000611a5e6040830184611620565b949350505050565b80820180821115611a7957611a796118cb565b92915050565b6020808252600f908201526e151c985b9cd9995c8819985a5b1959608a1b604082015260600190565b8082028115828204841417611a7957611a796118cb565b600082611adc57634e487b7160e01b600052601260045260246000fd5b500490565b67ffffffffffffffff831115611af957611af961153f565b611b0d83611b0783546118fa565b83611934565b6000601f841160018114611b415760008515611b295750838201355b600019600387901b1c1916600186901b178355611b9b565b600083815260209020601f19861690835b82811015611b725786850135825560209485019460019092019101611b52565b5086821015611b8f5760001960f88860031b161c19848701351681555b505060018560011b0183555b5050505050565b81835281816020850137506000828201602090810191909152601f909101601f19169091010190565b606081526000611bdf60608301888a611ba2565b8281036020840152611bf2818789611ba2565b90508281036040840152611c07818587611ba2565b999850505050505050505056fea2646970667358221220bc5f5d11a403b18a100be59139a0ed1de5e56aeb9ae0c5da4797695338b0880964736f6c63430008180033",
  "linkReferences": {},
  "deployedLinkReferences": {}
}